{
  "_format": "hh-sol-artifact-1",
  "contractName": "Token",
  "sourceName": "contracts/Token.sol",
  "abi": [
    {
      "inputs": [],
      "stateMutability": "nonpayable",
      "type": "constructor"
    },
    {
      "anonymous": false,
      "inputs": [
        {
          "indexed": true,
          "internalType": "address",
          "name": "_from",
          "type": "address"
        },
        {
          "indexed": true,
          "internalType": "address",
          "name": "_to",
          "type": "address"
        },
        {
          "indexed": false,
          "internalType": "uint256",
          "name": "_value",
          "type": "uint256"
        }
      ],
      "name": "Transfer",
      "type": "event"
    },
    {
      "inputs": [
        {
          "internalType": "address",
          "name": "account",
          "type": "address"
        }
      ],
      "name": "balanceOf",
      "outputs": [
        {
          "internalType": "uint256",
          "name": "",
          "type": "uint256"
        }
      ],
      "stateMutability": "view",
      "type": "function"
    },
    {
      "inputs": [],
      "name": "name",
      "outputs": [
        {
          "internalType": "string",
          "name": "",
          "type": "string"
        }
      ],
      "stateMutability": "view",
      "type": "function"
    },
    {
      "inputs": [],
      "name": "owner",
      "outputs": [
        {
          "internalType": "address",
          "name": "",
          "type": "address"
        }
      ],
      "stateMutability": "view",
      "type": "function"
    },
    {
      "inputs": [],
      "name": "symbol",
      "outputs": [
        {
          "internalType": "string",
          "name": "",
          "type": "string"
        }
      ],
      "stateMutability": "view",
      "type": "function"
    },
    {
      "inputs": [],
      "name": "totalSupply",
      "outputs": [
        {
          "internalType": "uint256",
          "name": "",
          "type": "uint256"
        }
      ],
      "stateMutability": "view",
      "type": "function"
    },
    {
      "inputs": [
        {
          "internalType": "address",
          "name": "to",
          "type": "address"
        },
        {
          "internalType": "uint256",
          "name": "amount",
          "type": "uint256"
        }
      ],
      "name": "transfer",
      "outputs": [],
      "stateMutability": "nonpayable",
      "type": "function"
    }
  ],
  "bytecode": "0x60c0604052600860809081526726bc902a37b5b2b760c11b60a0526000906100279082610133565b5060408051808201909152600581526426acaa25a760d91b60208201526001906100519082610133565b50620f424060025534801561006557600080fd5b5060025433600081815260046020526040902091909155600380546001600160a01b03191690911790556101f1565b634e487b7160e01b600052604160045260246000fd5b600181811c908216806100be57607f821691505b6020821081036100de57634e487b7160e01b600052602260045260246000fd5b50919050565b601f82111561012e57806000526020600020601f840160051c8101602085101561010b5750805b601f840160051c820191505b8181101561012b5760008155600101610117565b50505b505050565b81516001600160401b0381111561014c5761014c610094565b6101608161015a84546100aa565b846100e4565b6020601f821160018114610194576000831561017c5750848201515b600019600385901b1c1916600184901b17845561012b565b600084815260208120601f198516915b828110156101c457878501518255602094850194600190920191016101a4565b50848210156101e25786840151600019600387901b60f8161c191681555b50505050600190811b01905550565b6104fe806102006000396000f3fe608060405234801561001057600080fd5b50600436106100625760003560e01c806306fdde031461006757806318160ddd1461008557806370a082311461009c5780638da5cb5b146100c557806395d89b41146100f0578063a9059cbb146100f8575b600080fd5b61006f61010d565b60405161007c919061037a565b60405180910390f35b61008e60025481565b60405190815260200161007c565b61008e6100aa3660046103b0565b6001600160a01b031660009081526004602052604090205490565b6003546100d8906001600160a01b031681565b6040516001600160a01b03909116815260200161007c565b61006f61019b565b61010b6101063660046103cb565b6101a8565b005b6000805461011a906103f5565b80601f0160208091040260200160405190810160405280929190818152602001828054610146906103f5565b80156101935780601f1061016857610100808354040283529160200191610193565b820191906000526020600020905b81548152906001019060200180831161017657829003601f168201915b505050505081565b6001805461011a906103f5565b336000908152600460205260409020548111156101ff5760405162461bcd60e51b81526020600482015260116024820152704e6f7420656e6f75676820746f6b656e7360781b604482015260640160405180910390fd5b6102236040518060600160405280602181526020016104a8602191393384846102b8565b3360009081526004602052604081208054839290610242908490610445565b90915550506001600160a01b0382166000908152600460205260408120805483929061026f90849061045e565b90915550506040518181526001600160a01b0383169033907fddf252ad1be2c89b69c2b068fc378daa952ba7f163c4a11628f55a4df523b3ef9060200160405180910390a35050565b610301848484846040516024016102d29493929190610471565b60408051601f198184030181529190526020810180516001600160e01b0316638ef3f39960e01b179052610307565b50505050565b61031081610313565b50565b60006a636f6e736f6c652e6c6f679050600080835160208501845afa505050565b6000815180845260005b8181101561035a5760208185018101518683018201520161033e565b506000602082860101526020601f19601f83011685010191505092915050565b60208152600061038d6020830184610334565b9392505050565b80356001600160a01b03811681146103ab57600080fd5b919050565b6000602082840312156103c257600080fd5b61038d82610394565b600080604083850312156103de57600080fd5b6103e783610394565b946020939093013593505050565b600181811c9082168061040957607f821691505b60208210810361042957634e487b7160e01b600052602260045260246000fd5b50919050565b634e487b7160e01b600052601160045260246000fd5b818103818111156104585761045861042f565b92915050565b808201808211156104585761045861042f565b6080815260006104846080830187610334565b6001600160a01b039586166020840152939094166040820152606001529291505056fe5472616e7366657272696e672066726f6d20257320746f20257320746f6b656e73a264697066735822122028756b8a95d1eeb88f98441309dbe48e5fd012f80033e81d0da24200f22b56d664736f6c634300081c0033",
  "linkReferences": {},
  "deployedLinkReferences": {}
}